:020000040800F2
:1000000000000220F10B0008B90B0008BB0B000830
:10001000BD0B0008BF0B0008C10B0008000000006A
:10002000000000000000000000000000E1160008D1
:10003000C30B00080000000011170008C50B0008E2
:10004000410C0008410C0008410C0008410C00085C
:10005000410C0008410C0008410C0008410C00084C
:10006000410C0008410C0008410C0008410C00083C
:10007000410C0008410C0008410C0008410C00082C
:10008000410C0008410C0008410C0008410C00081C
:10009000410C0008410C0008410C0008410C00080C
:1000A000410C0008410C0008410C0008410C0008FC
:1000B000410C0008410C0008410C0008410C0008EC
:1000C000410C0008410C0008410C0008410C0008DC
:1000D000410C0008410C0008410C0008410C0008CC
:1000E000410C0008410C0008410C0008410C0008BC
:1000F000410C0008410C0008410C0008410C0008AC
:10010000410C0008410C0008410C0008410C00089B
:10011000410C0008410C0008410C0008410C00088B
:10012000410C0008410C0008410C0008410C00087B
:10013000410C0008410C0008410C0008410C00086B
:10014000410C0008410C0008410C0008410C00085B
:10015000410C0008410C0008410C0008410C00084B
:10016000410C0008410C0008410C0008410C00083B
:10017000410C0008410C0008410C00080000000080
:08018000410C0008410C0008CD
:1001900010B5054C237833B9044B13B10448AFF3C1
:1001A00000800123237010BD3C04002000000000EB
:1001B000C41A000808B5034B1BB103490348AFF349
:1001C000008008BD0000000040040020C41A0008A0
:1001D00053B94AB9002908BF00281CBF4FF0FF31AE
:1001E0004FF0FF3000F074B9ADF1080C6DE904CEAA
:1001F00000F006F8DDF804E0DDE9022304B0704702
:100200002DE9F047089D04468E46002B4DD18A42C9
:10021000944669D9B2FA82F252B101FA02F3C2F1FC
:10022000200120FA01F10CFA02FC41EA030E94408D
:100230004FEA1C48210CBEFBF8F61FFA8CF708FBAE
:1002400016E341EA034306FB07F199420AD91CEB86
:10025000030306F1FF3080F01F81994240F21C81B8
:10026000023E63445B1AA4B2B3FBF8F008FB103300
:1002700044EA034400FB07F7A7420AD91CEB040435
:1002800000F1FF3380F00A81A74240F20781644405
:10029000023840EA0640E41B00261DB1D44000238A
:1002A000C5E900433146BDE8F0878B4209D9002DEE
:1002B00000F0EF800026C5E9000130463146BDE878
:1002C000F087B3FA83F6002E4AD18B4202D38242E2
:1002D00000F2F980841A61EB030301209E46002D91
:1002E000E0D0C5E9004EDDE702B9FFDEB2FA82F2E6
:1002F000002A40F09280A1EB0C014FEA1C471FFA44
:100300008CFE0126200CB1FBF7F307FB131140EA2A
:1003100001410EFB03F0884208D91CEB010103F1F7
:10032000FF3802D2884200F2CB804346091AA4B2B9
:10033000B1FBF7F007FB101144EA01440EFB00FE8D
:10034000A64508D91CEB040400F1FF3102D2A645F2
:1003500000F2BB800846A4EB0E0440EA03409CE791
:10036000C6F12007B34022FA07FC4CEA030C20FA3E
:1003700007F401FA06F31C43F9404FEA1C4900FA5E
:1003800006F3B1FBF9F8200C1FFA8CFE09FB1811DB
:1003900040EA014108FB0EF0884202FA06F20BD94E
:1003A0001CEB010108F1FF3A80F08880884240F29E
:1003B0008580A8F102086144091AA4B2B1FBF9F0E2
:1003C00009FB101144EA014100FB0EFE8E4508D9DD
:1003D0001CEB010100F1FF346CD28E456AD9023862
:1003E000614440EA0840A0FB0294A1EB0E01A14247
:1003F000C846A64656D353D05DB1B3EB080261EBB5
:100400000E0101FA07F722FA06F3F1401F43C5E98E
:10041000007100263146BDE8F087C2F12003D840C4
:100420000CFA02FC21FA03F3914001434FEA1C4706
:100430001FFA8CFEB3FBF7F007FB10360B0C43EAF8
:10044000064300FB0EF69E4204FA02F408D91CEBA8
:10045000030300F1FF382FD29E422DD902386344A6
:100460009B1B89B2B3FBF7F607FB163341EA034146
:1004700006FB0EF38B4208D91CEB010106F1FF3895
:1004800016D28B4214D9023E6144C91A46EA00468C
:1004900038E72E46284605E70646E3E61846F8E61E
:1004A0004B45A9D2B9EB020864EB0C0E0138A3E767
:1004B0004646EAE7204694E74046D1E7D0467BE748
:1004C000023B614432E7304609E76444023842E7C0
:1004D000704700BF00B589B000220192144B196B20
:1004E00041F008011963196B01F0080101910199AC
:1004F0000292196B41F0100119631B6B03F010039A
:100500000293029B4FF4807303930123049302230D
:100510000693059203A9074800F04AFC04230393BD
:1005200003A9054800F044FC09B05DF804FB00BFD6
:1005300000380240000C02400010024008B50122C1
:100540004FF48071044800F025FD01220421034886
:1005500000F020FD08BD00BF000C0240001002406A
:1005600010B50C460D4B1880C0F3C323022B06D0E8
:100570000B4B1C80C4F3C323032B07D010BD00F02A
:100580008DFA064B188800F0CBFAF1E7204600F010
:1005900085FA034B188800F0C3FAEFE762040020E5
:1005A0006404002010B500F053FAFFF793FFFFF743
:1005B000C5FF4FF4FA7000F09FF841F21200174B9C
:1005C000188041F60801164B1980FFF7C9FF154C3A
:1005D0004FF41040208000F061FA208800F05EFAAD
:1005E000114B1880208800F09BFA208800F098FAC0
:1005F0000E4B18804FF41840208000F04FFA2088EE
:1006000000F04CFA0A4B1880208800F089FA208804
:1006100000F086FA074B188010BD00BF620400206E
:100620006404002060040020580400205A040020C4
:100630005C0400205E0400202DE9F0438BB0002212
:1006400001922A4B196B41F040011963196B01F0BB
:100650004001019101990292196B41F04001196327
:10066000196B01F04001029102990392196B41F05C
:1006700010011963196B01F01001039103990492A1
:100680001A6B42F010021A631B6B03F01003049301
:10069000049B012605960696079603230893144D9E
:1006A00005A9284600F084FB4FF00209CDF814900C
:1006B00005A9284600F07CFB4FF08008CDF8148097
:1006C0000C4C05A9204600F073FB4FF4807705978A
:1006D00005A9204600F06CFBAE61C5F81890C4F87F
:1006E0001880A7610BB0BDE8F08300BF003802405E
:1006F000001802400010024082B00190144B1B68A9
:10070000144AA2FB03239B09013BB3F1807F0AD269
:100710004FF0E0225361104BF02183F823100023A7
:10072000936107231361002206E04FF0E0231B6969
:1007300013F4803FF9D00132019B9342F5D84FF07A
:10074000E022136923F00103136102B0704700BF78
:1007500000000020D34D621000ED00E000B595B020
:1007600000210191264B1A6C42F080521A641B6CD6
:1007700003F080530193019B0291224B1A6842F4CB
:1007800080421A601B6803F480430293029B01239A
:1007900003934FF480330493022309934FF48002B0
:1007A0000A9208220B924FF4A8720C920D93072321
:1007B0000E9303A800F0F4FB00B1FEE70F230F93A4
:1007C00002231093002311934FF4A05312934FF47C
:1007D0008053139305210FA800F048FE00B1FEE7F7
:1007E00000F082FA41F20103984202D015B05DF8A0
:1007F00004FB054A136843F480731360F6E700BFF7
:100800000038024000700040003C024008B500F093
:100810003FFAFFF7A3FFFFF7C5FEFFF70DFF034BFE
:100820004FF480329A61002008BD00BF00180240DA
:1008300030B58BB000220192264B196B41F00101BB
:100840001963196B01F00101019101990292196B71
:1008500041F001011963196B01F001010291029944
:100860000392196B41F001011963196B01F0010149
:10087000039103990492196B41F0010119631B6BF9
:1008800003F001030493049B2023059302230693A2
:1008900008930792052309930F4C05A9204600F001
:1008A00087FA4023059305A9204600F081FA8023AA
:1008B000059305A9204600F07BFA1025059505A9AA
:1008C000204600F075FA01222946204600F062FB1E
:1008D0000BB030BD003802400000024030B58BB094
:1008E00000220192284B196B41F002011963196B28
:1008F00001F00201019101990292196B41F002018C
:100900001963196B01F00201029102990392196BAC
:1009100041F002011963196B01F00201039103997F
:100920000492196B41F0010119631B6B03F0010381
:100930000493049B082305930223069308930792CC
:1009400006230993114C05A9204600F031FA102323
:10095000059305A9204600F02BFA2023059305A94D
:10096000204600F025FA4FF400450595A4F5806473
:1009700005A9204600F01CFA01222946204600F075
:1009800009FB0BB030BD00BF00380240000402403C
:1009900000B583B000230193124A516C41F4805199
:1009A0005164526C02F480520192019A0E4A11680D
:1009B0000E480860106883604FF4827242600F2214
:1009C000C2624FF40062C26003621822C2614FF437
:1009D0000072826103610123436100F0F8FD03B0FE
:1009E0005DF804FB0038024068040020003001403C
:1009F00000B583B000230193124A116C41F4004109
:100A00001164126C02F400420192019A0E4A1168BC
:100A10000E480860106883604FF4827242600F22B3
:100A2000C2624FF40062C26003621822C2614FF4D6
:100A30000072826103610123436100F0C8FD03B0CD
:100A40005DF804FB003802406C040020003C0040CC
:100A500008B5FFF7EDFEFFF741FFFFF799FFFFF73E
:100A6000C7FF08BD08B501460A4B1B681B689B6899
:100A700013F0020FF8D0084800F008FE054B1B6881
:100A80001B689B6813F0010FF8D0034800F000FECC
:100A900008BD00BF680400200030014038B505469D
:100AA000104C00221021204600F074FA2846FFF76F
:100AB000D9FF01221021204600F06CFA0A20FFF72E
:100AC0001BFE00221021204600F064FA2846FFF7A2
:100AD000C9FF054601221021204600F05BFA284696
:100AE00038BD00BF0000024008B501460A4B1B6834
:100AF0001B689B6813F0020FF8D0084800F0C6FD91
:100B0000054B1B681B689B6813F0010FF8D0034866
:100B100000F0BEFD08BD00BF6C040020003C00409A
:100B200038B50546124C00224FF40041204600F033
:100B300031FA2846FFF7D8FF01224FF40041204642
:100B400000F028FA0A20FFF7D7FD00224FF40041F9
:100B5000204600F01FFA2846FFF7C6FF054601228F
:100B60004FF40041204600F015FA284638BD00BF7A
:100B70000000024000B583B0002200920D4B596C7A
:100B800041F480415964596C01F48041009100990D
:100B90000192196C41F0805119641B6C03F0805371
:100BA0000193019B0F216FF0010000F0B5F803B035
:100BB0005DF804FB00380240FEE7FEE7FEE7FEE7D3
:100BC000FEE7704708B500F07DF800F0D7FE012879
:100BD00000D108BD00F0CEFDFBE70000034AD2F8CB
:100BE000883043F47003C2F88830704700ED00E0AD
:100BF000DFF834D00D480E490E4A002302E0D458E5
:100C0000C4500433C4188C42F9D30B4A0B4C002354
:100C100001E013600432A242FBD3FFF7DFFF00F0D4
:100C2000BDFEFFF7F3FD704700000220000000202A
:100C30003C040020041B00083C0400203005002078
:100C4000FEE7000010B504460E4B18784FF47A7397
:100C5000B3FBF0F30C4A1068B0FBF3F000F094F82B
:100C600068B90F2C01D901200AE0002221464FF07B
:100C7000FF3000F051F8054B1C60002000E001201F
:100C800010BD00BF0400002000000020080000206C
:100C900008B50B4B1A6842F400721A601A6842F4E5
:100CA00080621A601A6842F480721A60032000F0B1
:100CB00021F80F20FFF7C6FFFFF75CFF002008BDFB
:100CC000003C0240034A1168034B1B780B4413603D
:100CD000704700BF7004002004000020014B18681A
:100CE000704700BF70040020014B1868000C70476B
:100CF000002004E0074AD36823F4E0631B041B0CC4
:100D0000000200F4E060034343F0BF6343F40033A8
:100D1000D360704700ED00E000B5194BDB68C3F30A
:100D20000223C3F1070CBCF1040F28BF4FF0040CE1
:100D300003F1040EBEF1060F18D9033B4FF0FF3E3E
:100D40000EFA0CFC21EA0C0199400EFA03F322EA98
:100D50000303194300280BDB0901C9B200F160400D
:100D600000F5614080F800135DF804FB0023E5E71F
:100D700000F00F000901C9B2024B1954F4E700BF9B
:100D800000ED00E014ED00E00138B0F1807F0BD2FF
:100D90004FF0E0235861054AF02182F8231000202B
:100DA000986107221A6170470120704700ED00E04A
:100DB00000230F2B00F2E48070B582B060E08568FC
:100DC0005E000324B44025EA0405CC68B4402C43FB
:100DD0008460456825EA02054C68C4F300129A4015
:100DE0002A4342605AE0DC08083450F8246003F0DB
:100DF000070295000F22AA4026EA020E0A69AA40BD
:100E000042EA0E0240F824205CE0072200E00022C3
:100E100002FA0EF22A4302345A4D45F824205A4A67
:100E200094686FEA0C0224EA0C054E6816F4801FE1
:100E300001D04CEA0405544CA560E46802EA0405BC
:100E40004E6816F4001F01D04CEA04054E4CE560D4
:100E5000646802EA04054E6816F4003F01D04CEACB
:100E60000405494C6560246822404D6815F4803FB4
:100E700001D04CEA0402444C226001330F2B7DD890
:100E800001229A400C6804EA020C32EA0404F4D10C
:100E90004C6804F00304013C012C90D94A6802F02C
:100EA0000302032A09D0C4685D000322AA4024EA91
:100EB00002048A68AA402243C2604A6802F0030220
:100EC000022A90D004684FEA430E032202FA0EF27F
:100ED00024EA02044A6802F0030202FA0EF22243F4
:100EE00002604A6812F4403FC7D000220192274AAC
:100EF000546C44F480445464526C02F48042019275
:100F0000019A9C08A51C1F4A52F8255003F00302C1
:100F10004FEA820E0F2202FA0EF225EA02051C4A5F
:100F200090423FF474AF02F5806290421AD002F50D
:100F30008062904218D002F58062904216D002F58D
:100F40008062904214D002F58062904212D002F585
:100F50008062904210D002F5806290423FF455AF1B
:100F6000082255E7012253E7022251E703224FE707
:100F700004224DE705224BE7062249E702B070BD87
:100F8000704700BF00380140003C0140003802407B
:100F9000000002400AB18161704709048161704715
:100FA000002800F0E08170B582B00446036813F0B9
:100FB000010F3BD09F4B9B6803F00C03042B2CD0FC
:100FC0009C4B9B6803F00C03082B21D06368B3F59E
:100FD000803F4FD0B3F5A02F52D0964B1A6822F421
:100FE00080321A601A6822F480221A606368002B2B
:100FF00050D0FFF773FE05468E4B1B6813F4003F7D
:1010000014D1FFF76BFE401B6428F5D90320B1E132
:10101000884B5B6813F4800FD8D0864B1B6813F4A1
:10102000003F03D06368002B00F09F81236813F01A
:10103000020F54D07F4B9B6813F00C0F3ED07D4BBA
:101040009B6803F00C03082B33D0E368002B68D0B7
:10105000794B01221A60FFF741FE0546754B1B686C
:1010600013F0020F54D1FFF739FE401B0228F5D9C7
:1010700003207FE16F4A136843F480331360B5E7C0
:101080006C4B1A6842F480221A601A6842F480326B
:101090001A60ABE7FFF722FE0546664B1B6813F4A8
:1010A000003FC3D0FFF71AFE401B6428F5D9032088
:1010B00060E1604B5B6813F4800FC6D15D4B1B6829
:1010C00013F0020F03D0E368012B40F05081594A1E
:1010D000136823F0F803216943EAC103136023680E
:1010E00013F0080F42D063696BB3534B0122C3F86E
:1010F000802EFFF7F3FD05464E4B5B6F13F0020F9A
:1011000034D1FFF7EBFD401B0228F5D9032031E174
:10111000484A136823F0F803216943EAC1031360C6
:10112000DDE7454B00221A60FFF7D8FD0546414B2D
:101130001B6813F0020FD2D0FFF7D0FD401B02282E
:10114000F5D9032016E13C4B0022C3F8802EFFF7AF
:10115000C5FD0546374B5B6F13F0020F06D0FFF756
:10116000BDFD401B0228F5D9032003E1236813F0DD
:10117000040F77D02F4B1B6C13F0805F33D100230B
:1011800001932C4B1A6C42F080521A641B6C03F0D2
:1011900080530193019B0125284B1B6813F4807F2A
:1011A00023D0A368012B34D0052B38D0214B1A6FE4
:1011B00022F001021A671A6F22F004021A67A3686C
:1011C000002B3DD0FFF78AFD06461A4B1B6F13F02C
:1011D000020F46D1FFF782FD801B41F2883398420F
:1011E000F3D90320C6E00025D6E7144A136843F478
:1011F00080731360FFF772FD0646104B1B6813F4F3
:10120000807FCED1FFF76AFD801B0228F5D903202D
:10121000B0E0084A136F43F001031367CFE7054BB3
:101220001A6F42F004021A671A6F42F001021A673D
:10123000C5E700BF00380240000047420070004090
:10124000FFF74CFD0646524B1B6F13F0020F08D000
:10125000FFF744FD801B41F288339842F3D9032005
:1012600088E0EDB9A369002B00F08380484A9268BA
:1012700002F00C02082A51D0022B17D0454B002255
:101280001A66FFF72BFD0446414B1B6813F0007FE5
:1012900042D0FFF723FD001B0228F5D9032069E0A7
:1012A0003B4A136C23F080531364DBE7394B002275
:1012B0001A66FFF713FD0546354B1B6813F0007FD8
:1012C00006D0FFF70BFD401B0228F5D9032051E0A3
:1012D000E369226A1343626A43EA8213A26A5208EC
:1012E000013A43EA0243E26A43EA0263284A53604E
:1012F000284B01221A66FFF7F1FC0446244B1B68B9
:1013000013F0007F06D1FFF7E9FC001B0228F5D996
:1013100003202FE000202DE000202BE0012B2BD01C
:101320001B4B5B6803F48001E269914226D103F014
:101330003F02216A8A4223D1616A47F6C0721A408D
:10134000B2EB811F1ED103F44031A26A5208013A68
:10135000B1EB024F18D103F07063E26AB3EB026F96
:1013600014D1002006E001207047012002E0012096
:1013700000E0002002B070BD0120FBE70120F9E78A
:101380000120F7E70120F5E70120F3E70120F1E76D
:10139000003802400000474208B5314B9B6803F01B
:1013A0000C03042B57D0082B57D12D4B5A6802F051
:1013B0003F025B6813F4800F2AD0294B5968C1F3B0
:1013C000881C4FEA4C11B1EB0C006EEB0E0E4FEA8D
:1013D0008E1343EA90638101091A63EB0E03DB006D
:1013E00043EA5173C90011EB0C0C43F1000359029D
:1013F00000234FEA4C2041EADC51FEF7E9FE184B8E
:101400005B68C3F3014301335B00B0FBF3F025E0FD
:10141000134B5968C1F3881C4FEA4C11B1EB0C0017
:101420006EEB0E0E4FEA8E1343EA90638101091AA8
:1014300063EB0E03DB0043EA5173C90011EB0C0CA4
:1014400043F10003990200234FEA8C2041EA9C51AA
:10145000FEF7BEFED3E7034800E0034808BD00BF27
:101460000038024000127A000024F400002800F046
:101470009B8070B50D4604464F4B1B6803F0070375
:101480008B4208D2CBB24C4A1370136803F00703A7
:101490008B4240F08B80236813F0020F17D013F0BB
:1014A000040F04D0454A936843F4E05393602368E3
:1014B00013F0080F04D0414A936843F460439360EB
:1014C0003E4A936823F0F003A1680B4393602368BE
:1014D00013F0010F32D06368012B21D09A1E012A2C
:1014E00025D9364A126812F0020F61D033498A6852
:1014F00022F0030213438B60FFF7F0FB06462F4BED
:101500009B6803F00C036268B3EB820F16D0FFF701
:10151000E5FB801B41F288339842F0D9032042E07A
:10152000264A126812F4003FE0D101203BE0234A32
:10153000126812F0007FD9D1012034E01E4B1B68E5
:1015400003F00703AB4207D9EAB21B4B1A701B68C2
:1015500003F00703AB422DD1236813F0040F06D02C
:10156000164A936823F4E053E1680B4393602368C1
:1015700013F0080F07D0114A936823F460432169E0
:1015800043EAC1039360FFF707FF0C4B9B68C3F36B
:1015900003130B4AD35CD8400A4B18600A4B1868F7
:1015A000FFF750FB002070BD012070470120FAE7D3
:1015B0000120F8E70120F6E7003C02400038024035
:1015C000DC1A0008000000200800002070470028F6
:1015D0005AD010B50446436A33B94368B3F5827FE5
:1015E00005D00023C36102E00023036143610023AF
:1015F000A36294F85130002B40D0022384F851307C
:101600002268136823F040031360636803F4827355
:10161000A26802F404421343E26802F40062134336
:10162000226902F002021343626902F001021343CD
:10163000A26902F400721343E26902F03802134314
:10164000226A02F080021343A26A02F40052216867
:1016500013430B60638B03F00403626A02F0100211
:10166000216813434B602268D36923F40063D3617C
:1016700000206065012384F8513010BD84F850309B
:101680002046FFF7A3FFB8E701207047C16070470D
:10169000C06880B2704743684B609A688A60516046
:1016A000996008610368013303607047036941680A
:1016B00082688A60416851605A68824206D000227E
:1016C00002611A68013A1A601868704782685A60A5
:1016D000F5E700000000000000000000000000002E
:1016E000074B19680868B0E8F04F80F30988BFF32A
:1016F0006F8F4FF0000080F311887047AFF30080C8
:101700007404002000000000000000000000000041
:10171000EFF30980BFF36F8F154B1A681EF0100F9F
:1017200008BF20ED108A20E9F04F10602DE9090074
:101730004FF0500080F31188BFF34F8FBFF36F8FCE
:1017400000F0D0F84FF0000080F3118809BC196850
:101750000868B0E8F04F1EF0100F08BFB0EC108A18
:1017600080F30988BFF36F8F704700BFAFF300802D
:101770007404002008B54FF0500383F31188BFF3C1
:101780006F8FBFF34F8F00F021F828B14FF0E023A7
:101790004FF08052C3F8042D002383F3118808BD55
:1017A000084B1B681B6823B9074B4FF0FF321A60C8
:1017B0007047044B1B68DB68DB685A68024B1A6091
:1017C000704700BF7804002014050020F8B53A4B9C
:1017D0001B68002B69D1394B1D6801351D60C5B9E7
:1017E000374B1B681B6843B14FF0500383F31188DC
:1017F000BFF36F8FBFF34F8FFEE7314A1168314B54
:10180000186810601960304A136801331360FFF7DD
:10181000C7FF2E4B1B68AB423DD900272C4B1B68E2
:10182000DB6A03EB83039A002A4B9B58012B00D9F8
:101830000127294B1B68002B3CD001273AE00127E8
:101840001F4B1B681B6843B31D4B1B68DB68DC68C0
:1018500063689D4226D3261D3046FFF727FFA36A03
:101860001BB104F11800FFF721FFE36A01229A403F
:101870001A49086802430A6003EB83039A00314661
:1018800014481044FFF707FFE26A114B1B68DB6A3C
:101890009A42D4D2D4E70027D2E70C4B4FF0FF3264
:1018A0001A60BBE7094A1360B8E70D4A13680133B1
:1018B000136000273846F8BD0C05002024050020E1
:1018C000780400207C040020180500201405002066
:1018D000740400208004002028050020100500204A
:1018E0001C050020204B1B681BB1204B01221A60F5
:1018F00070471E4B00221A601D4B1B68B3FA83F31E
:10190000DBB2C3F11F0303EB83018A0019498A5834
:1019100042B94FF0500383F31188BFF36F8FBFF3C9
:101920004F8FFEE7134903EB830082000A4450689F
:101930004068506003EB830C4FEA8C02083211447C
:10194000884209D003EB83039A000A4B13445B6877
:10195000DA68094B1A607047406862469100054A90
:101960000A445060EEE700BF0C0500202805002067
:10197000100500208004002074040020054B1B6823
:1019800033B1054B1B680BB1002070470220704734
:1019900001207047200500200C05002070B50D4E79
:1019A0000D4D761BB61006D0002455F8043B0134CB
:1019B0009847A642F9D1094E094D761B00F082F8EE
:1019C000B61006D0002455F8043B01349847A642CF
:1019D000F9D170BDF81A0008F81A0008001B0008B9
:1019E000F81A0008024B13B1024800F005B870471E
:1019F00000000000051A0008002301461A46184698
:101A000000F01AB838B5084B084D5B1B9C1007D086
:101A1000043B1D44013C55F804399847002CF9D18A
:101A2000BDE8384000F054B8041B0008001B000853
:101A3000704700BF704700BF2DE9F047DFF880A076
:101A40000646DAF8000098460F469146FFF7F0FF89
:101A50001A4B1B68D3F8484124B365681F2D26DC58
:101A60005EB96B1C0235DAF80000636044F825703B
:101A7000FFF7E0FF0020BDE8F08704EB85010123BC
:101A8000C1F88890D4F88821AB401A43022EC4F8DC
:101A90008821C1F80881E4D1D4F88C211343C4F81B
:101AA0008C31DEE703F5A674C3F84841D5E7DAF8D0
:101AB0000000FFF7BFFF4FF0FF30DCE7EC1A000833
:101AC00038040020F8B500BFF8BC08BC9E4670473B
:0C1AD000F8B500BFF8BC08BC9E4670478B
:101ADC0000000000000000000102030406070809D2
:041AEC0010000020C6
:081AF00010E7FF7F0100000078
:081AF800E5190008B501000822
:041B00009101000847
:101B04000024F400010000001000000000000000A8
:101B140000000000FC02002064030020CC0300202D
:101B240000000000000000000000000000000000B1
:101B340000000000000000000000000000000000A1
:101B44000000000000000000000000000000000091
:101B54000000000000000000000000000000000081
:101B64000000000000000000000000000000000071
:101B74000000000000000000000000000000000061
:101B84000000000000000000000000000000000051
:101B94000000000000000000000000000000000041
:101BA4000000000000000000000000000000000031
:101BB4000000000000000000010000000000000020
:101BC4000E33CDAB34126DE6ECDE05000B000000E5
:101BD4000000000000000000000000000000000001
:101BE40000000000000000000000000000000000F1
:101BF40000000000000000000000000000000000E1
:101C040000000000000000000000000000000000D0
:0C1F340000000000000000002C05002050
:0400000508000BF1F3
:00000001FF
